:020000040000FA
:100000000C9462000C948A000C948A000C948A0070
:100010000C948A000C948A000C948A000C948A0038
:100020000C948A000C948A000C948A000C948A0028
:100030000C948A000C948A000C948A000C948A0018
:100040000C942C050C948A000C948A000C948A0061
:100050000C948A000C948A000C948A000C948A00F8
:100060000C948A000C948A000000000024002700F1
:100070002A0000000000250028002B0000000000DE
:1000800023002600290004040404040404040202DA
:100090000202020203030303030301020408102007
:1000A0004080010204081020010204081020000012
:1000B0000008000201000003040700000000000027
:1000C0000000A00611241FBECFEFD8E0DEBFCDBFD9
:1000D00011E0A0E0B1E0E2E8FEE002C005900D9280
:1000E000A437B107D9F722E0A4E7B1E001C01D921F
:1000F000A530B207E1F710E0C2E6D0E004C02197D6
:10010000FE010E943907C136D107C9F70E94760562
:100110000C943F070C94000096E0899FD0011124B5
:10012000A258BE4F90967C936E935F9791E0919604
:100130009C939197E091EB01F091EC019091EA0191
:10014000992339F0309751F0811108C080919A01BC
:100150000994309719F05C968C91FACF0895CF925C
:10016000DF92EF92FF920F931F9396E0899FF00129
:100170001124E258FE4F11A2278D30A12130310504
:1001800051F178F02230310509F451C023303105A6
:1001900009F452C01F910F91FF90EF90DF90CF9024
:1001A00008956623B9F361E070E00E948C002FB7D8
:1001B000F89480917A0190917B01A0917C01B0919B
:1001C0007D012FBF8093D6019093D701A093D801D2
:1001D000B093D901DFCF9FB7F894C0907A01D09047
:1001E0007B01E0907C01F0907D019FBF0091D601E2
:1001F0001091D7012091D8013091D901C01AD10AAC
:10020000E20AF30A0091E8011091E90130E020E0F0
:100210000C151D052E053F0550F462E070E01F919E
:100220000F91FF90EF90DF90CF900C948C006111B4
:10023000B1CF63E070E0F3CF70E060E0F0CF8330E7
:1002400081F028F4813099F08230A9F00895873048
:10025000A9F08830C9F08430B1F4809180008F7D9E
:1002600003C0809180008F7780938000089584B5CB
:100270008F7784BD089584B58F7DFBCF8091B000CA
:100280008F778093B00008958091B0008F7DF9CF73
:10029000CF93DF93282F30E0F901E255FF4F84918F
:1002A000F901E656FF4FD491F901EA57FF4FC49187
:1002B000CC23A1F081110E941F01EC2FF0E0EE0F82
:1002C000FF1FE458FF4FA591B491EC91ED2381E01D
:1002D00090E009F480E0DF91CF91089580E090E014
:1002E000FACF862F0C9448011F93CF93DF93282FCA
:1002F00030E0F901E255FF4F8491F901E656FF4FD6
:10030000D491F901EA57FF4FC491CC23A9F0162FDD
:1003100081110E941F01EC2FF0E0EE0FFF1FEE583D
:10032000FF4FA591B4918FB7F894EC91111108C0CB
:10033000D095DE23DC938FBFDF91CF911F9108957D
:10034000DE2BF8CF862F642F0C947401CF93DF93AC
:1003500090E0FC01E656FF4F24918A579F4FFC0125
:1003600084918823C9F090E0880F991FFC01E85917
:10037000FF4FA591B491FC01EE58FF4FC591D49168
:1003800061110DC09FB7F8948C91209582238C93B6
:100390008881282328839FBFDF91CF910895623001
:1003A00051F49FB7F8943C91822F809583238C93CE
:1003B000E8812E2BEFCF8FB7F894EC912E2B2C9356
:1003C0008FBFEACF862F642F0C94A6016F927F9285
:1003D0008F929F92AF92BF92CF92DF92EF92FF9255
:1003E0000F931F93CF93DF9381E08093EA018FB740
:1003F000F89440917A0150917B0160917C01709159
:100400007D018FBF8091DA019091DB01A091DC0129
:10041000B091DD01481B590B6A0B7B0B8091E60103
:100420009091E701B0E0A0E084179507A607B70711
:1004300008F01DC1C0E08091E401C81760F4E091AC
:10044000E001F091E101EC0FF11D62E080810E947A
:10045000A601CF5FF0CF712C812C912C5401839495
:100460008091E501781608F05FC0072D10E0E0915B
:10047000E201F091E301E00FF11F61E080810E9451
:10048000A601E091E201F091E301E00FF11F60E0CD
:1004900080810E947401D501C401072C04C0880F1B
:1004A000991FAA1FBB1F0A94D2F76C017C01E0942C
:1004B000F094612C8091E4016816F8F4C62DD0E028
:1004C000E091E001F091E101EC0FFD1F80810E94BD
:1004D00048012496CC0FDD1FC258DE4F892B41F412
:1004E000888199818C299D29998388836394E2CF9F
:1004F000888199818E219F21F7CFE091E201F091CF
:10050000E301E00FF11F61E080810E94740180919E
:10051000E2019091E301080F191F60E0F80180816A
:100520000E94A60173949CCFCEE7D1E0FE018FEF2D
:100530009FEF278D30A1232B21F4148E968F858F6A
:1005400011A2369621E0EA3BF20799F7F12C96E0EA
:10055000D92E8091E401F81608F050C0E12C0F2D3F
:1005600010E0000F111F0A571E4F2091E501E216FF
:1005700008F042C0F801608171810E2C02C07695AE
:1005800067950A94E2F7F29E900111242E0D311D19
:10059000EEE7F1E080E0458D568D2417350709F42C
:1005A0006AC08F5F36968A30B1F760FF23C0EEE7EE
:1005B000F1E090E080E0448D411117C0E091DE0150
:1005C000F091DF01E20FF31F4081D89EF001D99E28
:1005D000F00D1124E258FE4F448F368F258F10A264
:1005E000178E61E00E94AF0005C0019636968A30F2
:1005F000910509F7E394B9CFF394ABCF80E099A1CB
:100600009111892F2696F1E0CA3BDF07C1F79FB70A
:10061000F89440917A0150917B0160917C01709136
:100620007D019FBF4093DA015093DB016093DC01B1
:100630007093DD018823D9F080919F018823B9F060
:1006400080919D0190919E01019789F480919A017A
:10065000DF91CF911F910F91FF90EF90DF90CF909E
:10066000BF90AF909F908F907F906F900895109261
:10067000EA0180E0EDCF6170B5CF3FB7F89480918B
:10068000760190917701A0917801B091790126B51A
:10069000A89B05C02F3F19F00196A11DB11D3FBFBA
:1006A000BA2FA92F982F8827BC01CD01620F711D89
:1006B000811D911D42E0660F771F881F991F4A9583
:1006C000D1F708958F929F92AF92BF92CF92DF920F
:1006D000EF92FF924B015C010E943D036B017C0194
:1006E0000E943D036C197D098E099F09683E734085
:1006F00081059105A8F321E0821A9108A108B108AB
:1007000088EEC80E83E0D81EE11CF11C8114910410
:10071000A104B10429F7FF90EF90DF90CF90BF9034
:10072000AF909F908F900895AF92BF92CF92DF923B
:10073000EF92FF920F931F93CF93DF936C017B0196
:100740008B01040F151FEB015E01AE18BF08C01727
:10075000D10759F06991D601ED91FC910190F0819A
:10076000E02DC6010995892B79F7C501DF91CF915D
:100770001F910F91FF90EF90DF90CF90BF90AF90BF
:100780000895089590E080E00895FC010190002014
:10079000E9F73197AF01481B590BBC018DEE91E091
:1007A0000C949403CF93DF93EC0160E08E810E9460
:1007B000740161E08E810E94740160E08E810E946C
:1007C00074018BE891E00197F1F7DF91CF910895E3
:1007D000CF92DF92EF92FF920F931F93CF93DF930D
:1007E0006C017C0187E0E80EF11CD0E0C0E0062F30
:1007F00010E0B8010C2E02C0759567950A94E2F7D7
:100800006170F70181917F010E9474012196C430CB
:10081000D10579F7C601DF91CF911F910F91FF901C
:10082000EF90DF90CF900C94D203CF92DF92EF92B3
:10083000FF920F931F93CF93DF93EC01F62E642F5B
:100840008C810E9474018D818F3F19F060E00E94BD
:1008500074010F2D10E08F8584FF25C06E0187E0A5
:10086000C80ED11CF12CE12CB8010E2C02C07595DC
:1008700067950A94E2F76170F60181916F010E9419
:100880007401FFEFEF1AFF0A88E0E816F10461F740
:10089000CE01DF91CF911F910F91FF90EF90DF90EC
:1008A000CF900C94D203B80184E0759567958A9532
:1008B000E1F7CE010E94E8036F2DCE01DF91CF91C9
:1008C0001F910F91FF90EF90DF90CF900C94E80371
:1008D00040E0682F8DEE91E00C94150481E00E94B9
:1008E00068048BE39FE10197F1F70895CF93DF93BD
:1008F000823029F49091FC0198609093FC018093E0
:1009000000021092010280E48093020280E1809351
:10091000030280E58093040261E08091F1010E946E
:10092000A6018091F2018F3F19F061E00E94A601BB
:1009300061E08091F3010E94A601CDEED1E09E011D
:100940002D5E31408091FC0184FD0BC084E090E07D
:1009500021962817390744F461E08E810E94A60190
:10096000EECF88E090E0F4CF8BE39DE00197F1F7C4
:1009700060E08091F1010E94740160E08091F301D8
:100980000E9474018091F2018F3F19F060E00E9493
:1009900074018091FC0184FD34C063E08DEE91E030
:1009A0000E94E803CBE4D6E4CE010197F1F763E0BF
:1009B0008DEE91E00E94E8032197F1F763E08DEE60
:1009C00091E00E94E80383E592E00197F1F762E08D
:1009D0008DEE91E00E94E8038091FC0180620E940C
:1009E000680484E08093FD018CE00E9468040E940A
:1009F0006E0482E08093FE0186E0DF91CF910C943B
:100A0000680480620E9468048BE496E40197F1F721
:100A10008091FC0180620E94680483E592E0019766
:100A2000F1F78091FC0180620E946804D5CF90911B
:100A30000002691710F06FEF690FE62FF0E0E35145
:100A4000FE4F9489890F80680C94680441E00E94ED
:100A5000150481E090E008951F920F920FB60F9257
:100A600011242F933F938F939F93AF93BF938091C4
:100A70007A0190917B01A0917C01B0917D01309130
:100A8000750123E0230F2D3758F50196A11DB11DE7
:100A90002093750180937A0190937B01A0937C0150
:100AA000B0937D018091760190917701A0917801BA
:100AB000B09179010196A11DB11D809376019093AB
:100AC0007701A0937801B0937901BF91AF919F9185
:100AD0008F913F912F910F900FBE0F901F901895FF
:100AE00026E8230F0296A11DB11DD2CFCF93DF932D
:100AF000CDB7DEB7A5970FB6F894DEBF0FBECDBF5A
:100B0000789484B5826084BD84B5816084BD85B5E8
:100B1000826085BD85B5816085BD80916E008160F4
:100B200080936E001092810080918100826080939A
:100B3000810080918100816080938100809180009C
:100B40008160809380008091B10084608093B100C7
:100B50008091B00081608093B00080917A008460C1
:100B600080937A0080917A00826080937A008091ED
:100B70007A00816080937A0080917A008068809307
:100B80007A001092C10061E08DE00E94A60160E051
:100B90008DE00E94740182E00E94760460E081E0B2
:100BA0000E94170583E0809374017E0186E2E80EBF
:100BB000F11C8AE0882E912CA12CB12C90E0C92E3A
:100BC00090E0D92E23E0722E89E291E00E94C503C5
:100BD00062E081E00E9417058E010E5D1F4F0E94AA
:100BE000E601682E8823D9F3F80181938F01809163
:100BF000FD01982F91609093FD0189600E94680427
:100C000041E0662D8DEE91E00E9415040E151F0542
:100C100031F78AA1873331F58BA1803319F58CA187
:100C2000803301F58DA18333E9F40E946E0460E006
:100C300081E00E94170588E391E00E94C50361E00E
:100C40008DE00E94740168EE73E080E090E00E9405
:100C500062030E946E04C114D10409F4B5CF0E944E
:100C60000000B2CF0E946E0460E080E00E94170591
:100C700087E491E00E94C50364EF71E080E090E0BA
:100C80000E94620360E08DE00E9474010E946E0485
:100C90008091740181508093740160E080E00E9433
:100CA000170586E591E00E94C50362E081E00E949D
:100CB00017052091740130E050E040E019A28E0148
:100CC0000F5D1F4FCA01B901A50194010E941707CA
:100CD000605DF80162938F012115310541055105D1
:100CE00089F7309761F001900020E9F73197AF0163
:100CF000401B510BB8018DEE91E00E94940368EE09
:100D000073E080E090E00E9462030E946E04809194
:100D100074018111A0CF60E00E94170586E691E082
:100D20000E94C50361E08DE00E9474010E94E6010B
:100D30008A3209F090CF0E946E04709274018BCFBA
:100D40001092F0011092EF0181E291E09093EE0198
:100D50008093ED011092F1018FEF8093F20181E019
:100D60008093F30182E08093F40183E08093F501A6
:100D700084E08093F60185E08093F7011092F801FA
:100D80001092F9011092FA011092FB011092FC01ED
:100D900081E00E94760410928001109284011092EA
:100DA00083011092850187E191E090937F01809308
:100DB0007E01EAE9F1E010821482138215823696F0
:100DC00081E0E63DF807B9F783E091E09093E10117
:100DD0008093E00180E091E09093E3018093E20151
:100DE00084E08093E40183E08093E50187E091E073
:100DF0009093DF018093DE018AE090E09093E70119
:100E00008093E60184EF91E09093E9018093E801FB
:100E10001092EC011092EB011092DA011092DB01BA
:100E20001092DC011092DD011092EA010895A1E216
:100E30001A2EAA1BBB1BFD010DC0AA1FBB1FEE1F54
:100E4000FF1FA217B307E407F50720F0A21BB30B9F
:100E5000E40BF50B661F771F881F991F1A9469F71B
:100E600060957095809590959B01AC01BD01CF0177
:100E70000895EE0FFF1F0590F491E02D0994F8946A
:100E8000FFCF060708090A0B0C31323334353637E9
:100E900038392A302300000000E201A2017101006C
:100EA00000000026059403C203C103656E746572D9
:100EB0002070617373776F72640020506173737771
:100EC0006F726420547275650057726F6E672050A0
:100ED000617373776F726400796F752068617665EE
:100EE00020746F207472790069742773206F76659F
:060EF0007220747279000B
:107E0000112484B714BE81FFF0D085E080938100F7
:107E100082E08093C00088E18093C10086E0809377
:107E2000C20080E18093C4008EE0C9D0259A86E02C
:107E300020E33CEF91E0309385002093840096BBD3
:107E4000B09BFECF1D9AA8958150A9F7CC24DD24C4
:107E500088248394B5E0AB2EA1E19A2EF3E0BF2EE7
:107E6000A2D0813461F49FD0082FAFD0023811F036
:107E7000013811F484E001C083E08DD089C08234E0
:107E800011F484E103C0853419F485E0A6D080C0E4
:107E9000853579F488D0E82EFF2485D0082F10E0AE
:107EA000102F00270E291F29000F111F8ED06801E7
:107EB0006FC0863521F484E090D080E0DECF843638
:107EC00009F040C070D06FD0082F6DD080E0C81688
:107ED00080E7D80618F4F601B7BEE895C0E0D1E017
:107EE00062D089930C17E1F7F0E0CF16F0E7DF06D8
:107EF00018F0F601B7BEE89568D007B600FCFDCFD4
:107F0000A601A0E0B1E02C9130E011968C91119780
:107F100090E0982F8827822B932B1296FA010C0160
:107F200087BEE89511244E5F5F4FF1E0A038BF0790
:107F300051F7F601A7BEE89507B600FCFDCF97BE46
:107F4000E89526C08437B1F42ED02DD0F82E2BD052
:107F50003CD0F601EF2C8F010F5F1F4F84911BD097
:107F6000EA94F801C1F70894C11CD11CFA94CF0C13
:107F7000D11C0EC0853739F428D08EE10CD085E9AC
:107F80000AD08FE07ACF813511F488E018D01DD067
:107F900080E101D065CF982F8091C00085FFFCCF94
:107FA0009093C60008958091C00087FFFCCF809118
:107FB000C00084FD01C0A8958091C6000895E0E648
:107FC000F0E098E1908380830895EDDF803219F02E
:107FD00088E0F5DFFFCF84E1DECF1F93182FE3DFCA
:107FE0001150E9F7F2DF1F91089580E0E8DFEE27F6
:047FF000FF270994CA
:027FFE00040479
:00000001FF
