:020000040000FA
:100000000C945C000C9479000C9479000C947900A9
:100010000C9479000C9479000C9479000C9479007C
:100020000C9479000C9479000C9479000C9479006C
:100030000C9479000C9479000C9479000C9479005C
:100040000C94A0000C9479000C9479000C94790025
:100050000C9479000C9479000C9479000C9479003C
:100060000C9479000C947900000000002400270013
:100070002A0000000000250028002B0004040404CE
:100080000404040402020202020203030303030342
:10009000010204081020408001020408102001021F
:1000A00004081020000000080002010000030407FB
:1000B000000000000000000011241FBECFEFD8E0B8
:1000C000DEBFCDBF11E0A0E0B1E0EEECF3E002C096
:1000D00005900D92AA30B107D9F721E0AAE0B1E06E
:1000E00001C01D92A331B207E1F70E94EA000C940F
:1000F000E5010C9400003FB7F89480910F019091B6
:100100001001A0911101B091120126B5A89B05C064
:100110002F3F19F00196A11DB11D3FBFBA2FA92F86
:10012000982F8827BC01CD01620F711D811D911D83
:1001300042E0660F771F881F991F4A95D1F70895EF
:100140001F920F920FB60F9211242F933F938F930C
:100150009F93AF93BF9380910B0190910C01A0915D
:100160000D01B0910E0130910A0123E0230F2D37CC
:1001700058F50196A11DB11D20930A0180930B0132
:1001800090930C01A0930D01B0930E0180910F018B
:1001900090911001A0911101B09112010196A11D41
:1001A000B11D80930F0190931001A0931101B093A2
:1001B0001201BF91AF919F918F913F912F910F901D
:1001C0000FBE0F901F90189526E8230F0296A11DD1
:1001D000B11DD2CF789484B5826084BD84B581602E
:1001E00084BD85B5826085BD85B5816085BD809102
:1001F0006E00816080936E0010928100809181007A
:100200008260809381008091810081608093810071
:10021000809180008160809380008091B100846033
:100220008093B1008091B00081608093B000809194
:100230007A00846080937A0080917A008260809353
:100240007A0080917A00816080937A0080917A00B0
:10025000806880937A001092C10030E020E0F901BC
:10026000E057FF4F4491F901E458FF4F84918823F0
:1002700099F090E0880F991FFC01E859FF4FA59174
:10028000B491FC01EE58FF4F859194918FB7F8948B
:10029000EC91E42BEC938FBF2F5F3F4F273031055C
:1002A000F1F600E010E0C0E0D1E0299130E090E00C
:1002B00080E0FC01EC55FF4F5491FC01E057FF4FEB
:1002C0004491FC01E458FF4FE491EE2321F15523C2
:1002D00059F0533009F460C008F053C0513009F4AC
:1002E00061C0523009F462C0F0E0EE0FFF1FEE581B
:1002F000FF4FA591B4915FB7F894B901082E02C0E1
:10030000759567950A94E2F7EC9160FD5CC04095A5
:100310004E234C935FBF01968730910509F0C9CFFA
:100320000E947B004B015C018CE4C82E84E0D82E37
:10033000E12CF12C0E947B00681979098A099B093C
:10034000683E734081059105A8F321E0C21AD108E7
:10035000E108F10888EE880E83E0981EA11CB11C0C
:10036000C114D104E104F10429F781E0CA30D807AF
:1003700009F09BCF0115110509F495CF0E940000EB
:1003800092CF5730B1F05830D1F0543009F0ACCFA3
:10039000509180005F7D03C0509180005F77509343
:1003A0008000A2CF54B55F7754BD9ECF54B55F7D1A
:1003B000FBCF5091B0005F775093B00095CF509134
:1003C000B0005F7DF9CF4E2BA4CFF894FFCF3F064E
:0803D0005B4F666D7D077F6F36
:107E0000112484B714BE81FFF0D085E080938100F7
:107E100082E08093C00088E18093C10086E0809377
:107E2000C20080E18093C4008EE0C9D0259A86E02C
:107E300020E33CEF91E0309385002093840096BBD3
:107E4000B09BFECF1D9AA8958150A9F7CC24DD24C4
:107E500088248394B5E0AB2EA1E19A2EF3E0BF2EE7
:107E6000A2D0813461F49FD0082FAFD0023811F036
:107E7000013811F484E001C083E08DD089C08234E0
:107E800011F484E103C0853419F485E0A6D080C0E4
:107E9000853579F488D0E82EFF2485D0082F10E0AE
:107EA000102F00270E291F29000F111F8ED06801E7
:107EB0006FC0863521F484E090D080E0DECF843638
:107EC00009F040C070D06FD0082F6DD080E0C81688
:107ED00080E7D80618F4F601B7BEE895C0E0D1E017
:107EE00062D089930C17E1F7F0E0CF16F0E7DF06D8
:107EF00018F0F601B7BEE89568D007B600FCFDCFD4
:107F0000A601A0E0B1E02C9130E011968C91119780
:107F100090E0982F8827822B932B1296FA010C0160
:107F200087BEE89511244E5F5F4FF1E0A038BF0790
:107F300051F7F601A7BEE89507B600FCFDCF97BE46
:107F4000E89526C08437B1F42ED02DD0F82E2BD052
:107F50003CD0F601EF2C8F010F5F1F4F84911BD097
:107F6000EA94F801C1F70894C11CD11CFA94CF0C13
:107F7000D11C0EC0853739F428D08EE10CD085E9AC
:107F80000AD08FE07ACF813511F488E018D01DD067
:107F900080E101D065CF982F8091C00085FFFCCF94
:107FA0009093C60008958091C00087FFFCCF809118
:107FB000C00084FD01C0A8958091C6000895E0E648
:107FC000F0E098E1908380830895EDDF803219F02E
:107FD00088E0F5DFFFCF84E1DECF1F93182FE3DFCA
:107FE0001150E9F7F2DF1F91089580E0E8DFEE27F6
:047FF000FF270994CA
:027FFE00040479
:00000001FF
