:100000000C9462000C948A000C948A000C948A0070
:100010000C948A000C948A000C948A000C948A0038
:100020000C948A000C948A000C948A000C948A0028
:100030000C948A000C948A000C948A000C948A0018
:100040000C946A040C948A000C948A000C948A0024
:100050000C948A000C948A000C948A000C948A00F8
:100060000C948A000C948A000000000024002700F1
:100070002A0000000000250028002B0000000000DE
:1000800023002600290004040404040404040202DA
:100090000202020203030303030301020408102007
:1000A0004080010204081020010204081020000012
:1000B0000008000201000003040700000000000027
:1000C0000000300711241FBECFEFD8E0DEBFCDBF48
:1000D00011E0A0E0B1E0E2EFFFE002C005900D9278
:1000E000A235B107D9F721E0A2E5B1E001C01D9228
:1000F000A83EB207E1F710E0C2E6D0E004C02197C5
:10010000FE010E94F107C136D107C9F70E94B4046D
:100110000C94F7070C94000096E0899FD0011124FD
:10012000AF59BE4F90967C936E935F9791E09196F6
:100130009C939197E091CE01F091CF019091CD01E8
:10014000992339F0309751F0811108C080917D01D9
:100150000994309719F05C968C91FACF0895CF925C
:10016000DF92EF92FF920F931F9396E0899FF00129
:100170001124EF59FE4F11A2278D30A121303105F6
:1001800051F178F02230310509F451C023303105A6
:1001900009F452C01F910F91FF90EF90DF90CF9024
:1001A00008956623B9F361E070E00E948C002FB7D8
:1001B000F89480915D0190915E01A0915F01B091F2
:1001C00060012FBF8093B9019093BA01A093BB0146
:1001D000B093BC01DFCF9FB7F894C0905D01D09081
:1001E0005E01E0905F01F09060019FBF0091B90156
:1001F0001091BA012091BB013091BC01C01AD10A03
:10020000E20AF30A0091CB011091CC0130E020E02A
:100210000C151D052E053F0550F462E070E01F919E
:100220000F91FF90EF90DF90CF900C948C006111B4
:10023000B1CF63E070E0F3CF70E060E0F0CF8330E7
:1002400081F028F4813099F08230A9F00895873048
:10025000A9F08830C9F08430B1F4809180008F7D9E
:1002600003C0809180008F7780938000089584B5CB
:100270008F7784BD089584B58F7DFBCF8091B000CA
:100280008F778093B00008958091B0008F7DF9CF73
:10029000CF93DF93282F30E0F901E255FF4F84918F
:1002A000F901E656FF4FD491F901EA57FF4FC49187
:1002B000CC23A1F081110E941F01EC2FF0E0EE0F82
:1002C000FF1FE458FF4FA591B491EC91ED2381E01D
:1002D00090E009F480E0DF91CF91089580E090E014
:1002E000FACF1F93CF93DF93282F30E0F901E25527
:1002F000FF4F8491F901E656FF4FD491F901EA5777
:10030000FF4FC491CC23A9F0162F81110E941F0129
:10031000EC2FF0E0EE0FFF1FEE58FF4FA591B491C8
:100320008FB7F894EC91111108C0D095DE23DC93BF
:100330008FBFDF91CF911F910895DE2BF8CFCF9320
:10034000DF9390E0FC01E656FF4F24918A579F4FC0
:10035000FC0184918823C9F090E0880F991FFC016B
:10036000E859FF4FA591B491FC01EE58FF4FC5919C
:10037000D49161110DC09FB7F8948C912095822380
:100380008C938881282328839FBFDF91CF91089584
:10039000623051F49FB7F8943C91822F809583236B
:1003A0008C93E8812E2BEFCF8FB7F894EC912E2B06
:1003B0002C938FBFEACF3FB7F89480915901909169
:1003C0005A01A0915B01B0915C0126B5A89B05C0C4
:1003D0002F3F19F00196A11DB11D3FBFBA2FA92FC4
:1003E000982F8827BC01CD01620F711D811D911DC1
:1003F00042E0660F771F881F991F4A95D1F708952D
:100400008F929F92AF92BF92CF92DF92EF92FF9224
:100410004B015C010E94DB016B017C010E94DB014E
:100420006C197D098E099F09683E7340810591050D
:10043000A8F321E0821A9108A108B10888EEC80E3D
:1004400083E0D81EE11CF11C81149104A104B104C5
:1004500029F7FF90EF90DF90CF90BF90AF909F90E3
:100460008F900895862F642F0C949F01862F642F00
:100470000C947101862F0C944801AF92BF92CF92D9
:10048000DF92EF92FF920F931F93CF93DF936C0154
:100490007B018B01040F151FEB015E01AE18BF0835
:1004A000C017D10759F06991D601ED91FC910190E7
:1004B000F081E02DC6010995892B79F7C501DF91FF
:1004C000CF911F910F91FF90EF90DF90CF90BF9051
:1004D000AF900895089590E080E008958F929F92E4
:1004E000AF92BF920F931F93CF93DF93CDB7DEB739
:1004F000A1970FB6F894DEBF0FBECDBF19A2423050
:1005000008F44AE08E010F5D1F4F842E912CB12C10
:10051000A12CA50194010E94BB07E62FB901CA01D5
:10052000EA3044F5E05DD801EE938D01232B242BB6
:10053000252B79F790E080E0109769F0FD0101909C
:100540000020E9F73197AF014A1B5B0BBD0180ED3D
:1005500091E00E943D02A1960FB6F894DEBF0FBE57
:10056000CDBFDF91CF911F910F91BF90AF909F9022
:100570008F900895E95CD7CFFC0101900020E9F746
:100580003197AF01481B590BBC0180ED91E00C94F1
:100590003D02CF93DF93EC0160E08E810E947101F8
:1005A00061E08E810E94710160E08E810E94710184
:1005B0008BE891E00197F1F7DF91CF910895CF9209
:1005C000DF92EF92FF920F931F93CF93DF936C0113
:1005D0007C0187E0E80EF11CD0E0C0E0062F10E0BF
:1005E000B8010C2E02C0759567950A94E2F7617008
:1005F000F70181917F010E9471012196C430D105DC
:1006000079F7C601DF91CF911F910F91FF90EF9085
:10061000DF90CF900C94C902CF92DF92EF92FF92BD
:100620000F931F93CF93DF93EC01F62E642F8C81F1
:100630000E9471018D818F3F19F060E00E9471016D
:100640000F2D10E08F8584FF25C06E0187E0C80E56
:10065000D11CF12CE12CB8010E2C02C075956795C8
:100660000A94E2F76170F60181916F010E947101B5
:10067000FFEFEF1AFF0A88E0E816F10461F7CE01F8
:10068000DF91CF911F910F91FF90EF90DF90CF906E
:100690000C94C902B80184E0759567958A95E1F7D5
:1006A000CE010E94DF026F2DCE01DF91CF911F910D
:1006B0000F91FF90EF90DF90CF900C94DF0240E01D
:1006C000682F80ED91E00C940C0381E00E945F03A1
:1006D0008BE39FE10197F1F70895CF93DF93823089
:1006E00029F49091DF0198609093DF018093E301FA
:1006F0001092E40180E48093E50180E18093E601BB
:1007000080E58093E70161E08091D4010E949F0120
:100710008091D5018F3F19F061E00E949F0161E057
:100720008091D6010E949F01C0EDD1E09E01205D25
:1007300031408091DF0184FD0BC084E090E0219680
:100740002817390744F461E08E810E949F01EECFA3
:1007500088E090E0F4CF8BE39DE00197F1F760E053
:100760008091D4010E94710160E08091D6010E94C5
:1007700071018091D5018F3F19F060E00E947101F5
:100780008091DF0184FD34C063E080ED91E00E9440
:10079000DF02CBE4D6E4CE010197F1F763E080ED10
:1007A00091E00E94DF022197F1F763E080ED91E094
:1007B0000E94DF0283E592E00197F1F762E080EDAD
:1007C00091E00E94DF028091DF0180620E945F035E
:1007D00084E08093E0018CE00E945F030E94650347
:1007E00082E08093E10186E0DF91CF910C945F037A
:1007F00080620E945F038BE496E40197F1F7809199
:10080000DF0180620E945F0383E592E00197F1F7C8
:100810008091DF0180620E945F03D5CF9091E30158
:10082000691710F06FEF690FE62FF0E0E053FE4F0D
:100830009489890F80680C945F030E94650310926D
:1008400056011092550110925401109253011092CA
:1008500052011092570160E080E00E940E0488E38C
:1008600091E00E94BC0268EE73E080E090E00E949C
:1008700000020C94650341E00E940C0381E090E0CB
:100880000895CF92DF92EF92FF926C01990FEE08DC
:10089000FF08F7FE16C041E06DE280ED91E00E9496
:1008A0000C0366277727CB016C197D098E099F09F8
:1008B0004AE00E946E020196FF90EF90DF90CF9089
:1008C00008954AE0C701B601FF90EF90DF90CF9006
:1008D0000C946E021F920F920FB60F9211242F9359
:1008E0003F938F939F93AF93BF9380915D019091BE
:1008F0005E01A0915F01B09160013091580123E049
:10090000230F2D3758F50196A11DB11D20935801D5
:1009100080935D0190935E01A0935F01B0936001AD
:100920008091590190915A01A0915B01B0915C01B5
:100930000196A11DB11D8093590190935A01A09376
:100940005B01B0935C01BF91AF919F918F913F91FB
:100950002F910F900FBE0F901F90189526E8230F30
:100960000296A11DB11DD2CF789484B5826084BD5A
:1009700084B5816084BD85B5826085BD85B58160A3
:1009800085BD80916E00816080936E001092810021
:1009900080918100826080938100809181008160DC
:1009A000809381008091800081608093800080919D
:1009B000B10084608093B1008091B0008160809329
:1009C000B00080917A00846080937A0080917A00F0
:1009D000826080937A0080917A00816080937A00AF
:1009E00080917A00806880937A001092C10082E042
:1009F0000E946D0360E080E00E940E048EE391E0AF
:100A00000E94BC0268EE73E080E090E00E94000269
:100A10000E946503412C512C3201439488248A940E
:100A2000982C50E0C52E50E0D52E41E04093CD01EA
:100A30008FB7F89440915D0150915E0160915F0124
:100A4000709160018FBF8091BD019091BE01A09116
:100A5000BF01B091C001481B590B6A0B7B0B809101
:100A6000C9019091CA01B0E0A0E084179507A607DC
:100A7000B70708F013C1C0E08091C701C81760F440
:100A8000E091C301F091C401EC0FF11D62E080819F
:100A90000E949F01CF5FF0CF312C8091C8013816A2
:100AA00008F05FC0032D10E0E091C501F091C60190
:100AB000E00FF11F61E080810E949F01E091C5017C
:100AC000F091C601E00FF11F60E080810E9471018A
:100AD000D301C201032C04C0880F991FAA1FBB1F9A
:100AE0000A94D2F75C017C01E094F094212C80916F
:100AF000C7012816F8F4C22DD0E0E091C301F091AF
:100B0000C401EC0FFD1F80810E9448012496CC0F88
:100B1000DD1FCF59DE4F892B41F4888199818A29C5
:100B20009B29998388832394E2CF888199818E21A0
:100B30009F21F7CFE091C501F091C601E00FF11FB1
:100B400061E080810E9471018091C5019091C60190
:100B5000080F191F60E0F80180810E949F01339403
:100B60009CCF01E611E0E8018F8D98A1892B21F43B
:100B70001C8E9E8E8D8E19A22696F1E0CD39DF0750
:100B800099F7B12C8091C701B81608F053C0A12C79
:100B9000EB2CF12CEE0CFF1CA70147595E4F7A019C
:100BA0002091C801A21608F043C0F701608171814D
:100BB0000A2C02C0769567950A94E2F7B29E9001DE
:100BC00011242A0D311DE1E6F1E080E0458D568DBE
:100BD0002417350709F442C18F5F36968A30B1F782
:100BE00060FF24C0E1E6F1E090E080E0448D411137
:100BF00018C0E091C101F091C201E20FF31F4081E2
:100C000056E0589FF001599FF00D1124EF59FE4F07
:100C1000448F368F258F10A2178E61E00E94AF009F
:100C200005C0019636968A30910501F7A394B8CF96
:100C3000B394A8CF80E0F80191A19111892F0A5FA8
:100C40001F4FC017D107B9F79FB7F89440915D01C6
:100C500050915E0160915F01709160019FBF409370
:100C6000BD015093BE016093BF017093C001882302
:100C7000A9F080918201882389F080918001909170
:100C80008101019759F4C0917D01C1110AC0C114BD
:100C9000D10409F4CACE0E940000C7CE1092CD0143
:100CA000F6CF60E081E00E940E0480ED8C0F8A3068
:100CB00008F040C08C2FCC0F990BC097C091550104
:100CC000D09156012091570121110FC0FAE0FC9FED
:100CD0009001FD9F300D1124820F931F90935601B8
:100CE000809355010E944104D2CF4091530150910D
:100CF00054016AE0649F9001659F300D1124820FBA
:100D0000931F909354018093530160E083E00E940D
:100D10000E040E946503CE010E94410441E06091EF
:100D2000520180ED91E00E940C038091530190915B
:100D30005401D8CF86ED8C0F823030F08C2F877F16
:100D4000853211F0CF32C9F48091570181119FCFC4
:100D5000C093520181E080935701CD3431F08091EE
:100D60005501909156010E94410441E06091520169
:100D700080ED91E00E940C038ACFCD3309F06AC068
:100D800061E080E00E940E048AE491E00E94BC02CF
:100D9000809152018B3289F48091550190915601D6
:100DA0006091530170915401860F971F0E94410476
:100DB00068EE73E080E090E045C08D3259F4809198
:100DC0005501909156012091530130915401821B9D
:100DD000930BECCF8A3281F440915501509156012A
:100DE0002091530130915401429FC001439F900DC7
:100DF000529F900D1124DACF8F3261F4809155010A
:100E00009091560160915301709154010E94A7077F
:100E1000CB01CCCF8532D9F460915301709154014C
:100E20006115710539F080915501909156010E942C
:100E3000A707BCCF8DE491E00E94BC0260ED77E093
:100E400080E090E00E9400020E941D0420CF90E00C
:100E500080E0ACCFCF3409F01ACFF6CF6170DECE90
:100E60001092D3011092D20180E391E09093D101CE
:100E70008093D0011092D4018FEF8093D50181E04F
:100E80008093D60182E08093D70183E08093D801DC
:100E900084E08093D90185E08093DA011092DB0130
:100EA0001092DC011092DD011092DE011092DF0140
:100EB00081E00E946D03109263011092670110920D
:100EC00066011092680186E291E09093620180933E
:100ED0006101EDE7F1E010821482138215823696EB
:100EE00081E0E93BF807B9F786E091E09093C4010F
:100EF0008093C30180E091E09093C6018093C50187
:100F000084E08093C70186E08093C8018AE091E085
:100F10009093C2018093C1018AE090E09093CA014E
:100F20008093C90184EF91E09093CC018093CB0131
:100F30001092CF011092CE011092BD011092BE010D
:100F40001092BF011092C0011092CD01089597FB3D
:100F5000072E16F4009407D077FD09D00E94DD0714
:100F600007FC05D03EF4909581959F4F08957095AC
:100F700061957F4F0895A1E21A2EAA1BBB1BFD01AC
:100F80000DC0AA1FBB1FEE1FFF1FA217B307E40768
:100F9000F50720F0A21BB30BE40BF50B661F771FC0
:100FA000881F991F1A9469F76095709580959095A0
:100FB0009B01AC01BD01CF010895AA1BBB1B51E1F0
:100FC00007C0AA1FBB1FA617B70710F0A61BB70BB9
:100FD000881F991F5A95A9F780959095BC01CD015E
:100FE0000895EE0FFF1F0590F491E02D0994F894F9
:020FF000FFCF31
:100FF2000607080E0F10090A0B0C4F3738392A2F33
:101002004E3435362D4D253132332B6D2030203D77
:101012002B2000000000320236023A0200000000DB
:101022003B043D026B026A0272656461790073746B
:10103200617274207265616479003D2000457272AC
:021042000000AC
:00000001FF
