:100000000C945C000C946E000C946E000C946E00CA
:100010000C946E000C946E000C946E000C946E00A8
:100020000C946E000C946E000C946E000C946E0098
:100030000C946E000C946E000C946E000C946E0088
:100040000C9432010C946E000C946E000C946E00B3
:100050000C946E000C946E000C946E000C946E0068
:100060000C946E000C946E00000000002400270029
:100070002A0000000000250028002B0004040404CE
:100080000404040402020202020203030303030342
:10009000010204081020408001020408102001021F
:1000A00004081020000000080002010000030407FB
:1000B000000000000000000011241FBECFEFD8E0B8
:1000C000DEBFCDBF21E0A0E0B1E001C01D92A930AC
:1000D000B207E1F70E947C010C9434020C940000FA
:1000E00090E0FC01EC55FF4F2491FC01E057FF4FDD
:1000F0003491FC01E458FF4FE491EE23C9F0222330
:1001000039F0233001F1A8F4213019F1223029F11E
:10011000F0E0EE0FFF1FEE58FF4FA591B4918FB79F
:10012000F894EC91611126C030953E233C938FBF2B
:1001300008952730A9F02830C9F0243049F780917C
:1001400080008F7D03C0809180008F778093800036
:10015000DFCF84B58F7784BDDBCF84B58F7DFBCFB8
:100160008091B0008F778093B000D2CF8091B000A3
:100170008F7DF9CF3E2BDACF3FB7F8948091050100
:1001800090910601A0910701B091080126B5A89BA6
:1001900005C02F3F19F00196A11DB11D3FBFBA2F19
:1001A000A92F982F8827BC01CD01620F711D811DD9
:1001B000911D42E0660F771F881F991F4A95D1F75E
:1001C00008958F929F92AF92BF92CF92DF92EF925B
:1001D000FF920E94BC004B015C0185E0C82ED12C2F
:1001E000E12CF12C0E94BC00681979098A099B094D
:1001F000683E734081059105A8F321E0C21AD10839
:10020000E108F10888EE880E83E0981EA11CB11C5D
:10021000C114D104E104F10429F7FF90EF90DF90BD
:10022000CF90BF90AF909F908F9008950F931F93A2
:10023000CF93DF93D0E0C0E0082F10E0B8018C2FFF
:100240000C2E02C0759567950A94E2F761700E94C2
:1002500070002196C730D10589F7DF91CF911F91AA
:100260000F9108951F920F920FB60F9211242F93A2
:100270003F938F939F93AF93BF9380910101909190
:100280000201A0910301B09104013091000123E02B
:10029000230F2D3758F50196A11DB11D20930001A4
:1002A0008093010190930201A0930301B093040194
:1002B0008091050190910601A0910701B09108017C
:1002C0000196A11DB11D8093050190930601A09395
:1002D0000701B0930801BF91AF919F918F913F911A
:1002E0002F910F900FBE0F901F90189526E8230FA7
:1002F0000296A11DB11DD2CF789484B5826084BDD1
:1003000084B5816084BD85B5826085BD85B5816019
:1003100085BD80916E00816080936E001092810097
:100320008091810082608093810080918100816052
:100330008093810080918000816080938000809113
:10034000B10084608093B1008091B000816080939F
:10035000B00080917A00846080937A0080917A0066
:10036000826080937A0080917A00816080937A0025
:1003700080917A00806880937A001092C10030E00A
:1003800020E0F901E057FF4F4491F901E458FF4F95
:100390008491882399F090E0880F991FFC01E85917
:1003A000FF4FA591B491FC01EE58FF4F85919491B8
:1003B0008FB7F894EC91E42BEC938FBF2F5F3F4FF6
:1003C0002D303105F1F6C7E060E08C2F0E947000FF
:1003D000CF5FCD30C9F7C0E0D0E061E087E00E9498
:1003E000700080E00E9416010E94E10060E087E05A
:1003F0000E94700061E088E00E94700087E70E9420
:1004000016010E94E10060E088E00E94700061E057
:1004100089E00E94700087E70E9416010E94E100B7
:1004200060E089E00E94700061E08AE00E94700054
:1004300087E70E9416010E94E10060E08AE00E94C6
:10044000700061E08BE00E94700080E00E94160165
:100450000E94E10060E08BE00E947000209709F4A8
:0C046000BCCF0E940000B9CFF894FFCF81
:00000001FF
