:100000000C945C000C9479000C9479000C947900A9
:100010000C9479000C9479000C9479000C9479007C
:100020000C9479000C9479000C9479000C9479006C
:100030000C9479000C9479000C9479000C9479005C
:100040000C9443010C9479000C9479000C94790081
:100050000C9479000C9479000C9479000C9479003C
:100060000C9479000C947900000000080002010053
:100070000003040700000000000000000000000072
:10008000250028002B0000000000240027002A0083
:10009000040404040404040402020202020203032E
:1000A0000303030301020408102040800102040836
:1000B000102001020408102011241FBECFEFD8E049
:1000C000DEBFCDBF11E0A0E0B1E0E6E2F6E002C0A5
:1000D00005900D92AA30B107D9F721E0AAE0B1E06E
:1000E00001C01D92AF31B207E1F70E948D010C945F
:1000F00011030C94000090E0FC01EC55FF4F24919B
:1001000080579F4FFC018491882399F090E0880FDD
:10011000991FFC01EA57FF4FA591B491FC01E458E7
:10012000FF4F859194918FB7F894EC91E22BEC936B
:100130008FBF089590E0FC01E859FF4F2491FC0126
:10014000EC55FF4F3491FC01E057FF4FE491EE2353
:10015000C9F0222339F0233001F1A8F4213019F13C
:10016000223029F1F0E0EE0FFF1FE458FF4FA59178
:10017000B4918FB7F894EC91611126C030953E236D
:100180003C938FBF08952730A9F02830C9F0243060
:1001900049F7809180008F7D03C0809180008F7728
:1001A00080938000DFCF84B58F7784BDDBCF84B5AB
:1001B0008F7DFBCF8091B0008F778093B000D2CF3E
:1001C0008091B0008F7DF9CF3E2BDACF3FB7F89406
:1001D00080911B0190911C01A0911D01B0911E0105
:1001E00026B5A89B05C02F3F19F00196A11DB11D92
:1001F0003FBFBA2FA92F982F8827BC01CD01620FCE
:10020000711D811D911D42E0660F771F881F991F88
:100210004A95D1F70895CF92DF92EF92FF920E9414
:10022000E6006B017C010E94E6006C197D098E09D5
:100230009F09683E734081059105A8F3FF90EF90F8
:10024000DF90CF9008950F931F93CF93DF93D0E06B
:10025000C0E0E82FF0E0E050FF4F008110E0B8016F
:100260008C2F0C2E02C0759567950A94E2F7617089
:100270000E949A002196C830D10589F7DF91CF916D
:100280001F910F9108951F920F920FB60F92112494
:100290002F933F938F939F93AF93BF9380911701B9
:1002A00090911801A0911901B0911A013091160195
:1002B00023E0230F2D3758F50196A11DB11D209382
:1002C00016018093170190931801A0931901B09320
:1002D0001A0180911B0190911C01A0911D01B09108
:1002E0001E010196A11DB11D80931B0190931C015D
:1002F000A0931D01B0931E01BF91AF919F918F916B
:100300003F912F910F900FBE0F901F90189526E8E8
:10031000230F0296A11DB11DD2CF789484B58260BF
:1003200084BD84B5816084BD85B5826085BD85B599
:10033000816085BD80916E00816080936E00109217
:100340008100809181008260809381008091810092
:100350008160809381008091800081608093800023
:100360008091B10084608093B1008091B000816081
:100370008093B00080917A00846080937A008091AD
:100380007A00826080937A0080917A008160809305
:100390007A0080917A00806880937A001092C10080
:1003A000C0E08C2F0E947B00CF5FC730D1F787E081
:1003B0000E947B0088E00E947B0089E00E947B0015
:1003C0008AE00E947B008BE00E947B008CE00E9410
:1003D0007B00D0E0C0E00AE010E094E6E92EF12CCA
:1003E00028EEC22E23E0D22E30E1A32E37E2B32E28
:1003F000CE01B8010E94E902782E809314019093F7
:100400001501CB01B8010E94E902682E8093120108
:1004100090931301CE01B7010E94E902CB01B8010C
:100420000E94E902582E8093100190931101CE0191
:10043000B6010E94E902CB01B8010E94E902482EF0
:1004400080930E0190930F01CE01B5010E94E90245
:10045000362E60930C0170930D0110920B011092D7
:100460000A018BE0882E912C60E087E00E949A00C0
:1004700060E088E00E949A0060E089E00E949A00B3
:1004800060E08AE00E949A0060E08BE00E949A009F
:1004900061E08CE00E949A00872D0E9423010E9457
:1004A0000B0160E087E00E949A0060E088E00E9413
:1004B0009A0060E089E00E949A0060E08AE00E9471
:1004C0009A0061E08BE00E949A0060E08CE00E945C
:1004D0009A00862D0E9423010E940B0160E087E0B4
:1004E0000E949A0060E088E00E949A0060E089E043
:1004F0000E949A0061E08AE00E949A0060E08BE02E
:100500000E949A0060E08CE00E949A00852D0E9473
:1005100023010E940B0160E087E00E949A0060E0E6
:1005200088E00E949A0061E089E00E949A0060E001
:100530008AE00E949A0060E08BE00E949A0060E0EE
:100540008CE00E949A00842D0E9423010E940B01DE
:1005500060E087E00E949A0061E088E00E949A00D3
:1005600060E089E00E949A0060E08AE00E949A00C0
:1005700060E08BE00E949A0060E08CE00E949A00AC
:10058000832D0E9423010E940B0161E087E00E94FD
:100590009A0060E088E00E949A0060E089E00E9492
:1005A0009A0060E08AE00E949A0060E08BE00E947E
:1005B0009A0060E08CE00E949A0080E00E94230193
:1005C0000E940B0181E0881A910809F04DCF219615
:1005D0000FCF97FB072E16F4009407D077FD09D0B4
:1005E0000E94FD0207FC05D03EF4909581959F4F37
:1005F0000895709561957F4F0895AA1BBB1B51E12B
:1006000007C0AA1FBB1FA617B70710F0A61BB70B82
:10061000881F991F5A95A9F780959095BC01CD0127
:060620000895F894FFCFDD
:0A0626003F065B4F666D7D077F6F96
:00000001FF
