:100000000C9462000C948A000C948A000C948A0070
:100010000C948A000C948A000C948A000C948A0038
:100020000C948A000C948A000C948A000C948A0028
:100030000C948A000C948A000C948A000C948A0018
:100040000C94F5020C948A000C9465030C943F0305
:100050000C948A000C948A000C948A000C948A00F8
:100060000C948A000C948A000000000023002600F3
:10007000290000000000240027002A0000000000E2
:10008000250028002B0004040404040404040202D4
:100090000202020203030303030301020408102007
:1000A0004080010204081020010204081020000012
:1000B0000008000201000003040700000000000027
:1000C00000005D0511241FBECFEFD8E0DEBFCDBF1D
:1000D00011E0A0E0B1E0EAECFDE002C005900D9275
:1000E000AA36B107D9F722E0AAE6B1E001C01D9215
:1000F000A131B207E1F710E0C2E6D0E004C02197D9
:10010000FE010E94DD06C136D107C9F70E94DC035B
:100110000C94E3060C940000833081F028F48130C5
:1001200099F08230A9F008958730A9F08830C9F09D
:100130008430B1F4809180008F7D03C08091800075
:100140008F7780938000089584B58F7784BD08955C
:1001500084B58F7DFBCF8091B0008F778093B00006
:1001600008958091B0008F7DF9CF1F93CF93DF93D7
:10017000282F30E0F901E255FF4F8491F901E6564E
:10018000FF4FD491F901EA57FF4FC491CC23A9F056
:10019000162F81110E948C00EC2FF0E0EE0FFF1F54
:1001A000E458FF4FA591B4918FB7F894EC911111D9
:1001B00008C0D095DE23DC938FBFDF91CF911F91D4
:1001C0000895DE2BF8CFCF93DF9390E0FC01E65645
:1001D000FF4F24918A579F4FFC0184918823C9F0D7
:1001E00090E0880F991FFC01EE58FF4FA591B49144
:1001F000FC01E458FF4FC591D49161110DC09FB728
:10020000F8948C91209582238C93888128232883CD
:100210009FBFDF91CF910895623051F49FB7F8945A
:100220003C91822F809583238C93E8812E2BEFCFF6
:100230008FB7F894EC912E2B2C938FBFEACF3FB75A
:10024000F8948091700190917101A0917201B09128
:10025000730126B5A89B05C02F3F19F00196A11D7B
:10026000B11D3FBFBA2FA92F982F8827BC01CD0100
:10027000620F711D811D911D42E0660F771F881F5F
:10028000991F4A95D1F708958F929F92AF92BF928E
:10029000CF92DF92EF92FF924B015C010E941F010F
:1002A0006B017C010E941F016C197D098E099F0959
:1002B000683E734081059105A8F321E0821A9108F8
:1002C000A108B10888EEC80E83E0D81EE11CF11C1D
:1002D00081149104A104B10429F7FF90EF90DF90FD
:1002E000CF90BF90AF909F908F900895AF92BF92A4
:1002F000CF92DF92EF92FF920F931F93CF93DF93F2
:100300006C017B018B01040F151FEB015E01AE1820
:10031000BF08C017D10759F06991D601ED91FC9142
:100320000190F081E02DC6010995892B79F7C5016F
:10033000DF91CF911F910F91FF90EF90DF90CF90C1
:10034000BF90AF900895FC01538D448D252F30E070
:10035000842F90E0821B930B541710F0CF960895D2
:1003600001970895FC01918D828D981761F0A28DFF
:10037000AE0FBF2FB11D5D968C91928D9F5F9F73C5
:10038000928F90E008958FEF9FEF0895FC01918D7B
:10039000828D981731F0828DE80FF11D858D90E0E8
:1003A00008958FEF9FEF0895FC01918D228D892F85
:1003B00090E0805C9F4F821B91098F73992708956D
:1003C00084E791E00E94D40121E0892B09F420E028
:1003D000822F089580E090E0892B29F00E94E001AF
:1003E00081110C9400000895FC01A48DA80FB92F71
:1003F000B11DA35ABF4F2C91848D90E001968F734D
:100400009927848FA689B7892C93A089B1898C916B
:10041000837080648C93938D848D981306C00288BA
:10042000F389E02D80818F7D80830895EF92FF9284
:100430000F931F93CF93DF93EC0181E0888F9B8D07
:100440008C8D98131AC0E889F989808185FF15C0C1
:100450009FB7F894EE89FF896083E889F9898081E4
:100460008370806480839FBF81E090E0DF91CF91B3
:100470001F910F91FF90EF900895F62E0B8D10E0D5
:100480000F5F1F4F0F731127E02E8C8D8E110CC044
:100490000FB607FCFACFE889F989808185FFF5CF8F
:1004A000CE010E94F401F1CFEB8DEC0FFD2FF11D79
:1004B000E35AFF4FF0829FB7F8940B8FEA89FB89CC
:1004C00080818062CFCFCF93DF93EC01888D88232A
:1004D000B9F0AA89BB89E889F9898C9185FD03C0A7
:1004E000808186FD0DC00FB607FCF7CF8C9185FF8C
:1004F000F2CF808185FFEDCFCE010E94F401E9CFDC
:10050000DF91CF910895FC0101900020E9F7319728
:10051000AF01481B590BBC0184E791E00C947601B4
:100520008F929F92AF92BF920F931F93CF93DF93BF
:10053000CDB7DEB7A1970FB6F894DEBF0FBECDBF23
:1005400019A2423008F44AE08E010F5D1F4F842E3D
:10055000912CB12CA12CA50194010E94BB06E62F81
:10056000B901CA01EA30F4F4E05DD801EE938D01DF
:10057000232B242B252B79F790E080E0109719F09E
:10058000CD010E948302A1960FB6F894DEBF0FBE84
:10059000CDBFDF91CF911F910F91BF90AF909F90F2
:1005A0008F900895E95CE1CFCF92DF92EF92FF92B6
:1005B000CF93DF936B017C016DE284E791E00E94B1
:1005C0001602EC0166277727CB016C197D098E098D
:1005D0009F094AE00E9490028C0F9D1FDF91CF91EE
:1005E000FF90EF90DF90CF9008951F920F920FB67B
:1005F0000F9211242F933F938F939F93AF93BF93A9
:1006000080916C0190916D01A0916E01B0916F018C
:1006100030916B0123E0230F2D3758F50196A11D72
:10062000B11D20936B0180936C0190936D01A09399
:100630006E01B0936F018091700190917101A09152
:100640007201B09173010196A11DB11D80937001DB
:1006500090937101A0937201B0937301BF91AF9118
:100660009F918F913F912F910F900FBE0F901F90F0
:10067000189526E8230F0296A11DB11DD2CF1F9217
:100680000F920FB60F9211242F933F934F935F93C6
:100690006F937F938F939F93AF93BF93EF93FF934A
:1006A00084E791E00E94F401FF91EF91BF91AF9137
:1006B0009F918F917F916F915F914F913F912F917A
:1006C0000F900FBE0F901F9018951F920F920FB6AC
:1006D0000F9211242F938F939F93EF93FF93E091A9
:1006E0008401F09185018081E0918A01F0918B0174
:1006F00082FD1BC0908180918D018F5F8F7320914F
:100700008E01821741F0E0918D01F0E0EC58FE4F30
:10071000958F80938D01FF91EF919F918F912F91F4
:100720000F900FBE0F901F9018958081F4CFCF923D
:10073000DF92EF92FF920F931F93E82FF92F05C0DE
:10074000015011092109310961F190819623941713
:10075000B9F305C0015011092109310911F1908146
:1007600096239413F7CFC12CD12CE12CF12C0AC085
:100770008FEFC81AD80AE80AF80A0C151D052E05CD
:100780003F0579F080818623841791F36C2D7D2DB0
:100790008E2D9F2D1F910F91FF90EF90DF90CF90A6
:1007A000089560E070E080E090E01F910F91FF906D
:1007B000EF90DF90CF900895789484B5826084BDE7
:1007C00084B5816084BD85B5826085BD85B5816055
:1007D00085BD80916E00816080936E0010928100D3
:1007E000809181008260809381008091810081608E
:1007F000809381008091800081608093800080914F
:10080000B10084608093B1008091B00081608093DA
:10081000B00080917A00846080937A0080917A00A1
:10082000826080937A0080917A00816080937A0060
:1008300080917A00806880937A001092C10061E014
:1008400082E00E94E30060E083E00E94E30061E058
:1008500084E00E94E30061E085E00E94E30062E042
:1008600086E00E94E30060E08EE00E94E300E091F9
:100870008401F091850182E08083E0918001F09114
:1008800081011082E0918201F09183018FEC8083DD
:1008900010928C01E0918801F091890186E08083BB
:1008A000E0918601F0918701808180618083E091F1
:1008B0008601F0918701808188608083E0918601C4
:1008C000F0918701808180688083E0918601F091BA
:1008D000870180818F7D808323E0E22EF12C33E23B
:1008E000C32ED12C4DE9642E40E0742E59E8A52E7C
:1008F00050E0B52E60E0862E60E0962EE4EBF0E04E
:100900008491E0EAF0E0D491ECE8F0E0C491C11108
:10091000BAC0F1E0F0936A0182E191E00E948302A3
:100920008BE291E00E9483026CE271E080E090E053
:100930000E94440160E082E00E94B500C701019777
:10094000F1F761E082E00E94B500C6010197F1F77E
:1009500060E082E00E94B500F3016491F5018491AA
:10096000E82FF0E0EE0FFF1FE859FF4F85919491BB
:1009700000E412E42FE030E0462F0E949703611557
:1009800071058105910529F06F5F7F4F8F4F9F4F54
:100990009F700E94C20526E933E44BE05DE30E94AC
:1009A000260620E030E040E05FE30E9426060E9439
:1009B0008A051B012C018EE291E00E94830257FE02
:1009C00072C0C201B1010E94D4028BE291E00E9488
:1009D0008302F0E4F0937C0080917A00806480933D
:1009E0007A0080917A0086FDFCCFC0917800D0918A
:1009F000790089E391E00E948302BE010D2E000C74
:100A0000880B990B97FF55C00E94D4028BE291E0AE
:100A10000E94830280916A01882319F1C53FD14069
:100A200004F187E491E00E9483028BE291E00E944E
:100A3000830261E084E00E94B50061E085E00E94ED
:100A4000B50068EE73E080E090E00E94440160E051
:100A500084E00E94B50060E085E00E94B50010923D
:100A60006A0164EF71E080E090E00E94440181142B
:100A7000910409F443CF0E94E001882309F43ECF9A
:100A80000E9400003BCF81110E948C00EC2FF0E00F
:100A9000EE0FFF1FE859FF4FA591B4918C91D82319
:100AA00009F437CF47CF4AE0C201B1010E9490025A
:100AB0008CCF4AE00E949002A9CFE4E7F1E01382D4
:100AC000128288EE93E0A0E0B0E084839583A68351
:100AD000B78384E091E09183808385EC90E09587F3
:100AE000848784EC90E09787868780EC90E0918BF8
:100AF000808B81EC90E0938B828B82EC90E0958BE5
:100B0000848B86EC90E0978B868B118E128E138EE1
:100B1000148E08950E9491056894B1110C942006DA
:100B200008950E94050688F09F5798F0B92F9927DD
:100B3000B751B0F0E1F0660F771F881F991F1AF0C8
:100B4000BA95C9F714C0B13091F00E941F06B1E008
:100B500008950C941F06672F782F8827B85F39F007
:100B6000B93FCCF3869577956795B395D9F73EF461
:100B700090958095709561957F4F8F4F9F4F089509
:100B8000E89409C097FB3EF4909580957095619527
:100B90007F4F8F4F9F4F9923A9F0F92F96E9BB27DD
:100BA0009395F695879577956795B795F111F8CF59
:100BB000FAF4BB0F11F460FF1BC06F5F7F4F8F4FC4
:100BC0009F4F16C0882311F096E911C0772321F0BA
:100BD0009EE8872F762F05C0662371F096E8862F52
:100BE00070E060E02AF09A95660F771F881FDAF7A9
:100BF000880F9695879597F9089557FD9058440F5B
:100C0000551F59F05F3F71F04795880F97FB991F6B
:100C100061F09F3F79F08795089512161306140628
:100C2000551FF2CF4695F1DF08C0161617061806B5
:100C3000991FF1CF86957105610508940895E89490
:100C4000BB2766277727CB0197F908950E943906BD
:100C50000C94AA060E949C0638F00E94A30620F07D
:100C6000952311F00C9493060C94990611240C947E
:100C700020060E94FD0570F3959FC1F3950F50E08B
:100C8000551F629FF001729FBB27F00DB11D639F3E
:100C9000AA27F00DB11DAA1F649F6627B00DA11DE4
:100CA000661F829F2227B00DA11D621F739FB00D8A
:100CB000A11D621F839FA00D611D221F749F3327FA
:100CC000A00D611D231F849F600D211D822F762F93
:100CD0006A2F11249F5750409AF0F1F088234AF070
:100CE000EE0FFF1FBB1F661F771F881F91505040DC
:100CF000A9F79E3F510580F00C9493060C942006B2
:100D00005F3FE4F3983ED4F3869577956795B79562
:100D1000F795E7959F5FC1F7FE2B880F911D96957C
:100D2000879597F9089597F99F6780E870E060E0EC
:100D300008959FEF80EC089500240A941616170674
:100D400018060906089500240A94121613061406BC
:100D500005060895092E0394000C11F4882352F01F
:100D6000BB0F40F4BF2B11F460FF04C06F5F7F4FD7
:100D70008F4F9F4F0895A1E21A2EAA1BBB1BFD01A6
:100D80000DC0AA1FBB1FEE1FFF1FA217B307E4076A
:100D9000F50720F0A21BB30BE40BF50B661F771FC2
:100DA000881F991F1A9469F76095709580959095A2
:100DB0009B01AC01BD01CF010895EE0FFF1F05900F
:0A0DC000F491E02D0994F894FFCFA0
:100DCA000000000016027601A3016302D401B201F9
:100DDA00C601536F756E6420646574656374696FC8
:100DEA006E20656E61626C656421000D0A004469BB
:100DFA007374616E63653A2000536F756E64205692
:100E0A00616C75653A2000536F756E642064657471
:100E1A006563746564212041637469766174696EDF
:0A0E2A00672062757A7A65722E0067
:00000001FF
