:100000000C9462000C948A000C948A000C948A0070
:100010000C948A000C948A000C948A000C948A0038
:100020000C948A000C948A000C948A000C948A0028
:100030000C948A000C948A000C948A000C948A0018
:100040000C94A7020C948A000C948A000C948A00E9
:100050000C948A000C948A000C948A000C948A00F8
:100060000C948A000C948A000000000023002600F3
:10007000290000000000240027002A0000000000E2
:10008000250028002B0004040404040404040202D4
:100090000202020203030303030301020408102007
:1000A0004080010204081020010204081020000012
:1000B0000008000201000003040700000000000027
:1000C0000000A50311241FBECFEFD8E0DEBFCDBFD7
:1000D00011E0A0E0B1E0E8E9F7E002C005900D9280
:1000E000A636B107D9F721E0A6E6B1E001C01D921E
:1000F000A738B207E1F710E0C2E6D0E004C02197CC
:10010000FE010E94C403C136D107C9F70E94F10263
:100110000C94CA030C940000833081F028F48130E1
:1001200099F08230A9F008958730A9F08830C9F09D
:100130008430B1F4809180008F7D03C08091800075
:100140008F7780938000089584B58F7784BD08955C
:1001500084B58F7DFBCF8091B0008F778093B00006
:1001600008958091B0008F7DF9CF1F93CF93DF93D7
:10017000282F30E0F901E255FF4F8491F901E6564E
:10018000FF4FD491F901EA57FF4FC491CC23A9F056
:10019000162F81110E948C00EC2FF0E0EE0FFF1F54
:1001A000E458FF4FA591B4918FB7F894EC911111D9
:1001B00008C0D095DE23DC938FBFDF91CF911F91D4
:1001C0000895DE2BF8CFCF93DF9390E0FC01E65645
:1001D000FF4F24918A579F4FFC0184918823D1F0CF
:1001E00090E0880F991FFC01EE58FF4FA591B49144
:1001F000FC01E458FF4FC591D49161110EC09FB727
:10020000F8948C91E22FE0958E238C932881E22341
:10021000E8839FBFDF91CF9108958FB7F894EC9159
:10022000E22BEC938FBFF6CFAF92BF92CF92DF92CB
:10023000EF92FF920F931F93CF93DF936C017B019B
:100240008B01040F151FEB015E01AE18BF08C0172C
:10025000D10759F06991D601ED91FC910190F0819F
:10026000E02DC6010995892B79F7C501DF91CF9162
:100270001F910F91FF90EF90DF90CF90BF90AF90C4
:100280000895089590E080E00895FC010190002019
:10029000E9F73197AF01481B590BBC018FE691E09C
:1002A0000C941401CF93DF93EC0160E08E810E94E7
:1002B000B50061E08E810E94B50060E08E810E94F1
:1002C000B5008BE891E00197F1F7DF91CF910895A8
:1002D000CF92DF92EF92FF920F931F93CF93DF9312
:1002E0006C017C0187E0E80EF11CD0E0C0E0062F35
:1002F00010E0B8010C2E02C0759567950A94E2F7DC
:100300006170F70181917F010E94B5002196C43090
:10031000D10579F7C601DF91CF911F910F91FF9021
:10032000EF90DF90CF900C945201CF92DF92EF923A
:10033000FF920F931F93CF93DF93EC01F62E642F60
:100340008C810E94B5008D818F3F19F060E00E9482
:10035000B5000F2D10E08F8584FF25C06E0187E06A
:10036000C80ED11CF12CE12CB8010E2C02C07595E1
:1003700067950A94E2F76170F60181916F010E941E
:10038000B500FFEFEF1AFF0A88E0E816F10461F705
:10039000CE01DF91CF911F910F91FF90EF90DF90F1
:1003A000CF900C945201B80184E0759567958A95B9
:1003B000E1F7CE010E9468016F2DCE01DF91CF9150
:1003C0001F910F91FF90EF90DF90CF900C946801F8
:1003D00040E0682F8FE691E00C949501CF93DF9376
:1003E000613029F090917E01986090937E01609336
:1003F00082011092830190E490938401809385019F
:10040000805C8093860161E0809173010E94E3002B
:10041000809174018F3F19F061E00E94E30061E078
:10042000809175010E94E300CFE6D1E09E012F5636
:10043000314080917E0184FD0BC084E090E02196E4
:100440002817390744F461E08E810E94E300EECF63
:1004500088E090E0F4CF8BE39DE00197F1F760E056
:10046000809173010E94B50060E0809175010E9447
:10047000B500809174018F3F19F060E00E94B500D3
:1004800080917E0184FD39C063E08FE691E00E9497
:100490006801CBE4D6E4CE010197F1F763E08FE683
:1004A00091E00E9468012197F1F763E08FE691E007
:1004B0000E94680183E592E00197F1F762E08FE620
:1004C00091E00E94680180917E0180620E94E801B3
:1004D00084E080937F018CE00E94E80181E00E942B
:1004E000E8018BE39FE10197F1F782E080938001BF
:1004F00086E0DF91CF910C94E80180620E94E801D0
:100500008BE496E40197F1F780917E0180620E946E
:10051000E80183E592E00197F1F780917E01806226
:100520000E94E801D0CF90918201891710F08FEFDF
:10053000890FE82FF0E0E159FE4F848980680C9420
:10054000E80141E00E94950181E090E008951F924A
:100550000F920FB60F9211242F933F938F939F9377
:10056000AF93BF9380916B0190916C01A0916D014D
:10057000B0916E0130916A0123E0230F2D3758F5B9
:100580000196A11DB11D20936A0180936B01909388
:100590006C01A0936D01B0936E0180916601909102
:1005A0006701A0916801B09169010196A11DB11D7B
:1005B0008093660190936701A0936801B0936901ED
:1005C000BF91AF919F918F913F912F910F900FBE4F
:1005D0000F901F90189526E8230F0296A11DB11DBC
:1005E000D2CF789484B5826084BD84B5816084BDA7
:1005F00085B5826085BD85B5816085BD80916E00C1
:10060000816080936E0010928100809181008260F1
:10061000809381008091810081608093810080912E
:1006200080008160809380008091B100846080931D
:10063000B1008091B00081608093B00080917A0019
:10064000846080937A0080917A00826080937A003F
:1006500080917A00816080937A0080917A0080682E
:1006600080937A001092C10060E082E00E94E30073
:1006700061E087E00E94E30061E086E00E94E30021
:1006800064E084E10E94EE0180E00E9493028CE02D
:1006900091E00E94450181E00E94930283E291E093
:1006A0000E94450183E00E94930288E391E00E944A
:1006B0004501C0EBD0E00CE910E098E8E92E90E0AD
:1006C000F92E20E0C22E20E0D22EFE018491F80106
:1006D000A490F701B490BB2039F181110E948C00E5
:1006E000EB2DF0E0EE0FFF1FE859FF4FA591B491FD
:1006F0008C91A822C9F083E00E94930246E150E069
:100700006FE471E08FE691E00E94140161E087E000
:100710000E94B50060E086E00E94B500C114D104DB
:10072000A1F20E940000D1CF83E00E94930246E133
:1007300050E068E371E08FE691E00E94140160E010
:1007400087E00E94B50061E0E6CFEFE6F1E01382BA
:10075000128284E091E0918380838DE084838FEF27
:1007600085838CE086838BE087838AE0808789E0BD
:10077000818788E0828713861486158616861786F9
:1007800061E080E10C94EE01EE0FFF1F0590F49103
:08079000E02D0994F894FFCF5D
:1007980000000000A1021401420141012020544838
:1007A8004520425249474854204C49474854202044
:1007B8002020004E4F495345204D4F4E49544F522B
:1007C800494E4720535953002020202020204E4FC7
:1007D80020534F554E442020202020202020002048
:1007E8002020534F554E44204445544543544544D6
:0607F8002020202020005B
:00000001FF
